{
  "contractName": "Token",
  "abi": [
    {
      "inputs": [],
      "stateMutability": "nonpayable",
      "type": "constructor"
    },
    {
      "anonymous": false,
      "inputs": [
        {
          "indexed": true,
          "internalType": "address",
          "name": "owner",
          "type": "address"
        },
        {
          "indexed": true,
          "internalType": "address",
          "name": "approved",
          "type": "address"
        },
        {
          "indexed": true,
          "internalType": "uint256",
          "name": "tokenId",
          "type": "uint256"
        }
      ],
      "name": "Approval",
      "type": "event"
    },
    {
      "anonymous": false,
      "inputs": [
        {
          "indexed": true,
          "internalType": "address",
          "name": "owner",
          "type": "address"
        },
        {
          "indexed": true,
          "internalType": "address",
          "name": "operator",
          "type": "address"
        },
        {
          "indexed": false,
          "internalType": "bool",
          "name": "approved",
          "type": "bool"
        }
      ],
      "name": "ApprovalForAll",
      "type": "event"
    },
    {
      "anonymous": false,
      "inputs": [
        {
          "indexed": true,
          "internalType": "address",
          "name": "from",
          "type": "address"
        },
        {
          "indexed": true,
          "internalType": "address",
          "name": "to",
          "type": "address"
        },
        {
          "indexed": true,
          "internalType": "uint256",
          "name": "tokenId",
          "type": "uint256"
        }
      ],
      "name": "Transfer",
      "type": "event"
    },
    {
      "inputs": [
        {
          "internalType": "address",
          "name": "to",
          "type": "address"
        },
        {
          "internalType": "uint256",
          "name": "tokenId",
          "type": "uint256"
        }
      ],
      "name": "approve",
      "outputs": [],
      "stateMutability": "nonpayable",
      "type": "function"
    },
    {
      "inputs": [
        {
          "internalType": "address",
          "name": "owner",
          "type": "address"
        }
      ],
      "name": "balanceOf",
      "outputs": [
        {
          "internalType": "uint256",
          "name": "",
          "type": "uint256"
        }
      ],
      "stateMutability": "view",
      "type": "function"
    },
    {
      "inputs": [
        {
          "internalType": "uint256",
          "name": "tokenId",
          "type": "uint256"
        }
      ],
      "name": "getApproved",
      "outputs": [
        {
          "internalType": "address",
          "name": "",
          "type": "address"
        }
      ],
      "stateMutability": "view",
      "type": "function"
    },
    {
      "inputs": [
        {
          "internalType": "address",
          "name": "owner",
          "type": "address"
        },
        {
          "internalType": "address",
          "name": "operator",
          "type": "address"
        }
      ],
      "name": "isApprovedForAll",
      "outputs": [
        {
          "internalType": "bool",
          "name": "",
          "type": "bool"
        }
      ],
      "stateMutability": "view",
      "type": "function"
    },
    {
      "inputs": [],
      "name": "minter",
      "outputs": [
        {
          "internalType": "address",
          "name": "",
          "type": "address"
        }
      ],
      "stateMutability": "view",
      "type": "function"
    },
    {
      "inputs": [],
      "name": "name",
      "outputs": [
        {
          "internalType": "string",
          "name": "",
          "type": "string"
        }
      ],
      "stateMutability": "view",
      "type": "function"
    },
    {
      "inputs": [
        {
          "internalType": "uint256",
          "name": "tokenId",
          "type": "uint256"
        }
      ],
      "name": "ownerOf",
      "outputs": [
        {
          "internalType": "address",
          "name": "",
          "type": "address"
        }
      ],
      "stateMutability": "view",
      "type": "function"
    },
    {
      "inputs": [
        {
          "internalType": "address",
          "name": "operator",
          "type": "address"
        },
        {
          "internalType": "bool",
          "name": "approved",
          "type": "bool"
        }
      ],
      "name": "setApprovalForAll",
      "outputs": [],
      "stateMutability": "nonpayable",
      "type": "function"
    },
    {
      "inputs": [
        {
          "internalType": "bytes4",
          "name": "interfaceId",
          "type": "bytes4"
        }
      ],
      "name": "supportsInterface",
      "outputs": [
        {
          "internalType": "bool",
          "name": "",
          "type": "bool"
        }
      ],
      "stateMutability": "view",
      "type": "function"
    },
    {
      "inputs": [],
      "name": "symbol",
      "outputs": [
        {
          "internalType": "string",
          "name": "",
          "type": "string"
        }
      ],
      "stateMutability": "view",
      "type": "function"
    },
    {
      "inputs": [
        {
          "internalType": "uint256",
          "name": "tokenId",
          "type": "uint256"
        }
      ],
      "name": "tokenURI",
      "outputs": [
        {
          "internalType": "string",
          "name": "",
          "type": "string"
        }
      ],
      "stateMutability": "view",
      "type": "function"
    },
    {
      "inputs": [
        {
          "internalType": "address",
          "name": "from",
          "type": "address"
        },
        {
          "internalType": "address",
          "name": "to",
          "type": "address"
        },
        {
          "internalType": "uint256",
          "name": "tokenId",
          "type": "uint256"
        }
      ],
      "name": "transferFrom",
      "outputs": [],
      "stateMutability": "nonpayable",
      "type": "function"
    },
    {
      "inputs": [
        {
          "internalType": "address",
          "name": "to",
          "type": "address"
        }
      ],
      "name": "mint",
      "outputs": [],
      "stateMutability": "nonpayable",
      "type": "function"
    },
    {
      "inputs": [
        {
          "internalType": "uint256",
          "name": "tokenId",
          "type": "uint256"
        }
      ],
      "name": "burn",
      "outputs": [],
      "stateMutability": "nonpayable",
      "type": "function"
    },
    {
      "inputs": [
        {
          "internalType": "address",
          "name": "from",
          "type": "address"
        },
        {
          "internalType": "address",
          "name": "to",
          "type": "address"
        },
        {
          "internalType": "uint256",
          "name": "tokenId",
          "type": "uint256"
        }
      ],
      "name": "safeTransferFrom",
      "outputs": [],
      "stateMutability": "nonpayable",
      "type": "function"
    },
    {
      "inputs": [
        {
          "internalType": "address",
          "name": "from",
          "type": "address"
        },
        {
          "internalType": "address",
          "name": "to",
          "type": "address"
        },
        {
          "internalType": "uint256",
          "name": "tokenId",
          "type": "uint256"
        },
        {
          "internalType": "bytes",
          "name": "_data",
          "type": "bytes"
        }
      ],
      "name": "safeTransferFrom",
      "outputs": [],
      "stateMutability": "nonpayable",
      "type": "function"
    }
  ],
  "bytecode": "0x608060405260006007556000600860006101000a81548173ffffffffffffffffffffffffffffffffffffffff021916908373ffffffffffffffffffffffffffffffffffffffff1602179055503480156200005857600080fd5b506040518060400160405280600581526020017f546f6b656e0000000000000000000000000000000000000000000000000000008152506040518060400160405280600381526020017f54535400000000000000000000000000000000000000000000000000000000008152508160009080519060200190620000dd92919062000140565b508060019080519060200190620000f692919062000140565b50505033600860006101000a81548173ffffffffffffffffffffffffffffffffffffffff021916908373ffffffffffffffffffffffffffffffffffffffff16021790555062000254565b8280546200014e906200021f565b90600052602060002090601f016020900481019282620001725760008555620001be565b82601f106200018d57805160ff1916838001178555620001be565b82800160010185558215620001be579182015b82811115620001bd578251825591602001919060010190620001a0565b5b509050620001cd9190620001d1565b5090565b5b80821115620001ec576000816000905550600101620001d2565b5090565b7f4e487b7100000000000000000000000000000000000000000000000000000000600052602260045260246000fd5b600060028204905060018216806200023857607f821691505b6020821081036200024e576200024d620001f0565b5b50919050565b612e6a80620002646000396000f3fe608060405234801561001057600080fd5b50600436106101005760003560e01c80636352211e11610097578063a22cb46511610066578063a22cb465146102ab578063b88d4fde146102c7578063c87b56dd146102e3578063e985e9c51461031357610100565b80636352211e146102115780636a6278421461024157806370a082311461025d57806395d89b411461028d57610100565b8063095ea7b3116100d3578063095ea7b3146101a157806323b872dd146101bd57806342842e0e146101d957806342966c68146101f557610100565b806301ffc9a71461010557806306fdde03146101355780630754617214610153578063081812fc14610171575b600080fd5b61011f600480360381019061011a9190611c85565b610343565b60405161012c9190611ccd565b60405180910390f35b61013d610425565b60405161014a9190611d81565b60405180910390f35b61015b6104b7565b6040516101689190611de4565b60405180910390f35b61018b60048036038101906101869190611e35565b6104dd565b6040516101989190611de4565b60405180910390f35b6101bb60048036038101906101b69190611e8e565b610562565b005b6101d760048036038101906101d29190611ece565b610679565b005b6101f360048036038101906101ee9190611ece565b6106d9565b005b61020f600480360381019061020a9190611e35565b6107e1565b005b61022b60048036038101906102269190611e35565b610807565b6040516102389190611de4565b60405180910390f35b61025b60048036038101906102569190611f21565b6108b8565b005b61027760048036038101906102729190611f21565b610970565b6040516102849190611f5d565b60405180910390f35b610295610a27565b6040516102a29190611d81565b60405180910390f35b6102c560048036038101906102c09190611fa4565b610ab9565b005b6102e160048036038101906102dc9190612119565b610acf565b005b6102fd60048036038101906102f89190611e35565b610c19565b60405161030a9190611d81565b60405180910390f35b61032d6004803603810190610328919061219c565b610d6a565b60405161033a9190611ccd565b60405180910390f35b60007f80ac58cd000000000000000000000000000000000000000000000000000000007bffffffffffffffffffffffffffffffffffffffffffffffffffffffff1916827bffffffffffffffffffffffffffffffffffffffffffffffffffffffff1916148061040e57507f5b5e139f000000000000000000000000000000000000000000000000000000007bffffffffffffffffffffffffffffffffffffffffffffffffffffffff1916827bffffffffffffffffffffffffffffffffffffffffffffffffffffffff1916145b8061041e575061041d82610dfe565b5b9050919050565b6060600080546104349061220b565b80601f01602080910402602001604051908101604052809291908181526020018280546104609061220b565b80156104ad5780601f10610482576101008083540402835291602001916104ad565b820191906000526020600020905b81548152906001019060200180831161049057829003601f168201915b5050505050905090565b600860009054906101000a900473ffffffffffffffffffffffffffffffffffffffff1681565b60006104e882610e68565b610527576040517f08c379a000000000000000000000000000000000000000000000000000000000815260040161051e906122ae565b60405180910390fd5b6004600083815260200190815260200160002060009054906101000a900473ffffffffffffffffffffffffffffffffffffffff169050919050565b600061056d82610807565b90508073ffffffffffffffffffffffffffffffffffffffff168373ffffffffffffffffffffffffffffffffffffffff16036105dd576040517f08c379a00000000000000000000000000000000000000000000000000000000081526004016105d490612340565b60405180910390fd5b8073ffffffffffffffffffffffffffffffffffffffff166105fc610ed4565b73ffffffffffffffffffffffffffffffffffffffff16148061062b575061062a81610625610ed4565b610d6a565b5b61066a576040517f08c379a0000000000000000000000000000000000000000000000000000000008152600401610661906123d2565b60405180910390fd5b6106748383610edc565b505050565b61068a610684610ed4565b82610f95565b6106c9576040517f08c379a00000000000000000000000000000000000000000000000000000000081526004016106c090612464565b60405180910390fd5b6106d4838383611073565b505050565b3373ffffffffffffffffffffffffffffffffffffffff16600860009054906101000a900473ffffffffffffffffffffffffffffffffffffffff1673ffffffffffffffffffffffffffffffffffffffff1614806107825750600860009054906101000a900473ffffffffffffffffffffffffffffffffffffffff1673ffffffffffffffffffffffffffffffffffffffff168273ffffffffffffffffffffffffffffffffffffffff16145b6107c1576040517f08c379a00000000000000000000000000000000000000000000000000000000081526004016107b8906124d0565b60405180910390fd5b6107dc83838360405180602001604052806000815250610acf565b505050565b6107ea816112d9565b6001600760008282546107fd919061251f565b9250508190555050565b6000806002600084815260200190815260200160002060009054906101000a900473ffffffffffffffffffffffffffffffffffffffff169050600073ffffffffffffffffffffffffffffffffffffffff168173ffffffffffffffffffffffffffffffffffffffff16036108af576040517f08c379a00000000000000000000000000000000000000000000000000000000081526004016108a6906125c5565b60405180910390fd5b80915050919050565b3373ffffffffffffffffffffffffffffffffffffffff16600860009054906101000a900473ffffffffffffffffffffffffffffffffffffffff1673ffffffffffffffffffffffffffffffffffffffff1614610948576040517f08c379a000000000000000000000000000000000000000000000000000000000815260040161093f90612631565b60405180910390fd5b600060016007546109599190612651565b9050610965828261132c565b806007819055505050565b60008073ffffffffffffffffffffffffffffffffffffffff168273ffffffffffffffffffffffffffffffffffffffff16036109e0576040517f08c379a00000000000000000000000000000000000000000000000000000000081526004016109d790612719565b60405180910390fd5b600360008373ffffffffffffffffffffffffffffffffffffffff1673ffffffffffffffffffffffffffffffffffffffff168152602001908152602001600020549050919050565b606060018054610a369061220b565b80601f0160208091040260200160405190810160405280929190818152602001828054610a629061220b565b8015610aaf5780601f10610a8457610100808354040283529160200191610aaf565b820191906000526020600020905b815481529060010190602001808311610a9257829003601f168201915b5050505050905090565b610acb610ac4610ed4565b8383611505565b5050565b3373ffffffffffffffffffffffffffffffffffffffff16600860009054906101000a900473ffffffffffffffffffffffffffffffffffffffff1673ffffffffffffffffffffffffffffffffffffffff161480610b785750600860009054906101000a900473ffffffffffffffffffffffffffffffffffffffff1673ffffffffffffffffffffffffffffffffffffffff168373ffffffffffffffffffffffffffffffffffffffff16145b610bb7576040517f08c379a0000000000000000000000000000000000000000000000000000000008152600401610bae906124d0565b60405180910390fd5b610bc8610bc2610ed4565b83610f95565b610c07576040517f08c379a0000000000000000000000000000000000000000000000000000000008152600401610bfe90612464565b60405180910390fd5b610c1384848484611671565b50505050565b6060610c2482610e68565b610c63576040517f08c379a0000000000000000000000000000000000000000000000000000000008152600401610c5a906127ab565b60405180910390fd5b6000600660008481526020019081526020016000208054610c839061220b565b80601f0160208091040260200160405190810160405280929190818152602001828054610caf9061220b565b8015610cfc5780601f10610cd157610100808354040283529160200191610cfc565b820191906000526020600020905b815481529060010190602001808311610cdf57829003601f168201915b505050505090506000610d0d6116cd565b90506000815103610d22578192505050610d65565b600082511115610d57578082604051602001610d3f929190612807565b60405160208183030381529060405292505050610d65565b610d60846116e4565b925050505b919050565b6000600560008473ffffffffffffffffffffffffffffffffffffffff1673ffffffffffffffffffffffffffffffffffffffff16815260200190815260200160002060008373ffffffffffffffffffffffffffffffffffffffff1673ffffffffffffffffffffffffffffffffffffffff16815260200190815260200160002060009054906101000a900460ff16905092915050565b60007f01ffc9a7000000000000000000000000000000000000000000000000000000007bffffffffffffffffffffffffffffffffffffffffffffffffffffffff1916827bffffffffffffffffffffffffffffffffffffffffffffffffffffffff1916149050919050565b60008073ffffffffffffffffffffffffffffffffffffffff166002600084815260200190815260200160002060009054906101000a900473ffffffffffffffffffffffffffffffffffffffff1673ffffffffffffffffffffffffffffffffffffffff1614159050919050565b600033905090565b816004600083815260200190815260200160002060006101000a81548173ffffffffffffffffffffffffffffffffffffffff021916908373ffffffffffffffffffffffffffffffffffffffff160217905550808273ffffffffffffffffffffffffffffffffffffffff16610f4f83610807565b73ffffffffffffffffffffffffffffffffffffffff167f8c5be1e5ebec7d5bd14f71427d1e84f3dd0314c0f7b2291e5b200ac8c7c3b92560405160405180910390a45050565b6000610fa082610e68565b610fdf576040517f08c379a0000000000000000000000000000000000000000000000000000000008152600401610fd69061289d565b60405180910390fd5b6000610fea83610807565b90508073ffffffffffffffffffffffffffffffffffffffff168473ffffffffffffffffffffffffffffffffffffffff16148061105957508373ffffffffffffffffffffffffffffffffffffffff16611041846104dd565b73ffffffffffffffffffffffffffffffffffffffff16145b8061106a57506110698185610d6a565b5b91505092915050565b8273ffffffffffffffffffffffffffffffffffffffff1661109382610807565b73ffffffffffffffffffffffffffffffffffffffff16146110e9576040517f08c379a00000000000000000000000000000000000000000000000000000000081526004016110e09061292f565b60405180910390fd5b600073ffffffffffffffffffffffffffffffffffffffff168273ffffffffffffffffffffffffffffffffffffffff1603611158576040517f08c379a000000000000000000000000000000000000000000000000000000000815260040161114f906129c1565b60405180910390fd5b61116383838361178b565b61116e600082610edc565b6001600360008573ffffffffffffffffffffffffffffffffffffffff1673ffffffffffffffffffffffffffffffffffffffff16815260200190815260200160002060008282546111be919061251f565b925050819055506001600360008473ffffffffffffffffffffffffffffffffffffffff1673ffffffffffffffffffffffffffffffffffffffff16815260200190815260200160002060008282546112159190612651565b92505081905550816002600083815260200190815260200160002060006101000a81548173ffffffffffffffffffffffffffffffffffffffff021916908373ffffffffffffffffffffffffffffffffffffffff160217905550808273ffffffffffffffffffffffffffffffffffffffff168473ffffffffffffffffffffffffffffffffffffffff167fddf252ad1be2c89b69c2b068fc378daa952ba7f163c4a11628f55a4df523b3ef60405160405180910390a46112d4838383611790565b505050565b6112e281611795565b60006006600083815260200190815260200160002080546113029061220b565b905014611329576006600082815260200190815260200160002060006113289190611bbc565b5b50565b600073ffffffffffffffffffffffffffffffffffffffff168273ffffffffffffffffffffffffffffffffffffffff160361139b576040517f08c379a000000000000000000000000000000000000000000000000000000000815260040161139290612a2d565b60405180910390fd5b6113a481610e68565b156113e4576040517f08c379a00000000000000000000000000000000000000000000000000000000081526004016113db90612a99565b60405180910390fd5b6113f06000838361178b565b6001600360008473ffffffffffffffffffffffffffffffffffffffff1673ffffffffffffffffffffffffffffffffffffffff16815260200190815260200160002060008282546114409190612651565b92505081905550816002600083815260200190815260200160002060006101000a81548173ffffffffffffffffffffffffffffffffffffffff021916908373ffffffffffffffffffffffffffffffffffffffff160217905550808273ffffffffffffffffffffffffffffffffffffffff16600073ffffffffffffffffffffffffffffffffffffffff167fddf252ad1be2c89b69c2b068fc378daa952ba7f163c4a11628f55a4df523b3ef60405160405180910390a461150160008383611790565b5050565b8173ffffffffffffffffffffffffffffffffffffffff168373ffffffffffffffffffffffffffffffffffffffff1603611573576040517f08c379a000000000000000000000000000000000000000000000000000000000815260040161156a90612b05565b60405180910390fd5b80600560008573ffffffffffffffffffffffffffffffffffffffff1673ffffffffffffffffffffffffffffffffffffffff16815260200190815260200160002060008473ffffffffffffffffffffffffffffffffffffffff1673ffffffffffffffffffffffffffffffffffffffff16815260200190815260200160002060006101000a81548160ff0219169083151502179055508173ffffffffffffffffffffffffffffffffffffffff168373ffffffffffffffffffffffffffffffffffffffff167f17307eab39ab6107e8899845ad3d59bd9653f200f220920489ca2b5937696c31836040516116649190611ccd565b60405180910390a3505050565b61167c848484611073565b611688848484846118b2565b6116c7576040517f08c379a00000000000000000000000000000000000000000000000000000000081526004016116be90612b97565b60405180910390fd5b50505050565b606060405180602001604052806000815250905090565b60606116ef82610e68565b61172e576040517f08c379a000000000000000000000000000000000000000000000000000000000815260040161172590612c29565b60405180910390fd5b60006117386116cd565b905060008151116117585760405180602001604052806000815250611783565b8061176284611a39565b604051602001611773929190612807565b6040516020818303038152906040525b915050919050565b505050565b505050565b60006117a082610807565b90506117ae8160008461178b565b6117b9600083610edc565b6001600360008373ffffffffffffffffffffffffffffffffffffffff1673ffffffffffffffffffffffffffffffffffffffff1681526020019081526020016000206000828254611809919061251f565b925050819055506002600083815260200190815260200160002060006101000a81549073ffffffffffffffffffffffffffffffffffffffff021916905581600073ffffffffffffffffffffffffffffffffffffffff168273ffffffffffffffffffffffffffffffffffffffff167fddf252ad1be2c89b69c2b068fc378daa952ba7f163c4a11628f55a4df523b3ef60405160405180910390a46118ae81600084611790565b5050565b60006118d38473ffffffffffffffffffffffffffffffffffffffff16611b99565b15611a2c578373ffffffffffffffffffffffffffffffffffffffff1663150b7a026118fc610ed4565b8786866040518563ffffffff1660e01b815260040161191e9493929190612c9e565b6020604051808303816000875af192505050801561195a57506040513d601f19601f820116820180604052508101906119579190612cff565b60015b6119dc573d806000811461198a576040519150601f19603f3d011682016040523d82523d6000602084013e61198f565b606091505b5060008151036119d4576040517f08c379a00000000000000000000000000000000000000000000000000000000081526004016119cb90612b97565b60405180910390fd5b805181602001fd5b63150b7a0260e01b7bffffffffffffffffffffffffffffffffffffffffffffffffffffffff1916817bffffffffffffffffffffffffffffffffffffffffffffffffffffffff191614915050611a31565b600190505b949350505050565b606060008203611a80576040518060400160405280600181526020017f30000000000000000000000000000000000000000000000000000000000000008152509050611b94565b600082905060005b60008214611ab2578080611a9b90612d2c565b915050600a82611aab9190612da3565b9150611a88565b60008167ffffffffffffffff811115611ace57611acd611fee565b5b6040519080825280601f01601f191660200182016040528015611b005781602001600182028036833780820191505090505b5090505b60008514611b8d57600182611b19919061251f565b9150600a85611b289190612dd4565b6030611b349190612651565b60f81b818381518110611b4a57611b49612e05565b5b60200101907effffffffffffffffffffffffffffffffffffffffffffffffffffffffffffff1916908160001a905350600a85611b869190612da3565b9450611b04565b8093505050505b919050565b6000808273ffffffffffffffffffffffffffffffffffffffff163b119050919050565b508054611bc89061220b565b6000825580601f10611bda5750611bf9565b601f016020900490600052602060002090810190611bf89190611bfc565b5b50565b5b80821115611c15576000816000905550600101611bfd565b5090565b6000604051905090565b600080fd5b600080fd5b60007fffffffff0000000000000000000000000000000000000000000000000000000082169050919050565b611c6281611c2d565b8114611c6d57600080fd5b50565b600081359050611c7f81611c59565b92915050565b600060208284031215611c9b57611c9a611c23565b5b6000611ca984828501611c70565b91505092915050565b60008115159050919050565b611cc781611cb2565b82525050565b6000602082019050611ce26000830184611cbe565b92915050565b600081519050919050565b600082825260208201905092915050565b60005b83811015611d22578082015181840152602081019050611d07565b83811115611d31576000848401525b50505050565b6000601f19601f8301169050919050565b6000611d5382611ce8565b611d5d8185611cf3565b9350611d6d818560208601611d04565b611d7681611d37565b840191505092915050565b60006020820190508181036000830152611d9b8184611d48565b905092915050565b600073ffffffffffffffffffffffffffffffffffffffff82169050919050565b6000611dce82611da3565b9050919050565b611dde81611dc3565b82525050565b6000602082019050611df96000830184611dd5565b92915050565b6000819050919050565b611e1281611dff565b8114611e1d57600080fd5b50565b600081359050611e2f81611e09565b92915050565b600060208284031215611e4b57611e4a611c23565b5b6000611e5984828501611e20565b91505092915050565b611e6b81611dc3565b8114611e7657600080fd5b50565b600081359050611e8881611e62565b92915050565b60008060408385031215611ea557611ea4611c23565b5b6000611eb385828601611e79565b9250506020611ec485828601611e20565b9150509250929050565b600080600060608486031215611ee757611ee6611c23565b5b6000611ef586828701611e79565b9350506020611f0686828701611e79565b9250506040611f1786828701611e20565b9150509250925092565b600060208284031215611f3757611f36611c23565b5b6000611f4584828501611e79565b91505092915050565b611f5781611dff565b82525050565b6000602082019050611f726000830184611f4e565b92915050565b611f8181611cb2565b8114611f8c57600080fd5b50565b600081359050611f9e81611f78565b92915050565b60008060408385031215611fbb57611fba611c23565b5b6000611fc985828601611e79565b9250506020611fda85828601611f8f565b9150509250929050565b600080fd5b600080fd5b7f4e487b7100000000000000000000000000000000000000000000000000000000600052604160045260246000fd5b61202682611d37565b810181811067ffffffffffffffff8211171561204557612044611fee565b5b80604052505050565b6000612058611c19565b9050612064828261201d565b919050565b600067ffffffffffffffff82111561208457612083611fee565b5b61208d82611d37565b9050602081019050919050565b82818337600083830152505050565b60006120bc6120b784612069565b61204e565b9050828152602081018484840111156120d8576120d7611fe9565b5b6120e384828561209a565b509392505050565b600082601f830112612100576120ff611fe4565b5b81356121108482602086016120a9565b91505092915050565b6000806000806080858703121561213357612132611c23565b5b600061214187828801611e79565b945050602061215287828801611e79565b935050604061216387828801611e20565b925050606085013567ffffffffffffffff81111561218457612183611c28565b5b612190878288016120eb565b91505092959194509250565b600080604083850312156121b3576121b2611c23565b5b60006121c185828601611e79565b92505060206121d285828601611e79565b9150509250929050565b7f4e487b7100000000000000000000000000000000000000000000000000000000600052602260045260246000fd5b6000600282049050600182168061222357607f821691505b602082108103612236576122356121dc565b5b50919050565b7f4552433732313a20617070726f76656420717565727920666f72206e6f6e657860008201527f697374656e7420746f6b656e0000000000000000000000000000000000000000602082015250565b6000612298602c83611cf3565b91506122a38261223c565b604082019050919050565b600060208201905081810360008301526122c78161228b565b9050919050565b7f4552433732313a20617070726f76616c20746f2063757272656e74206f776e6560008201527f7200000000000000000000000000000000000000000000000000000000000000602082015250565b600061232a602183611cf3565b9150612335826122ce565b604082019050919050565b600060208201905081810360008301526123598161231d565b9050919050565b7f4552433732313a20617070726f76652063616c6c6572206973206e6f74206f7760008201527f6e6572206e6f7220617070726f76656420666f7220616c6c0000000000000000602082015250565b60006123bc603883611cf3565b91506123c782612360565b604082019050919050565b600060208201905081810360008301526123eb816123af565b9050919050565b7f4552433732313a207472616e736665722063616c6c6572206973206e6f74206f60008201527f776e6572206e6f7220617070726f766564000000000000000000000000000000602082015250565b600061244e603183611cf3565b9150612459826123f2565b604082019050919050565b6000602082019050818103600083015261247d81612441565b9050919050565b7f496e76616c6964205472616e7366657200000000000000000000000000000000600082015250565b60006124ba601083611cf3565b91506124c582612484565b602082019050919050565b600060208201905081810360008301526124e9816124ad565b9050919050565b7f4e487b7100000000000000000000000000000000000000000000000000000000600052601160045260246000fd5b600061252a82611dff565b915061253583611dff565b925082821015612548576125476124f0565b5b828203905092915050565b7f4552433732313a206f776e657220717565727920666f72206e6f6e657869737460008201527f656e7420746f6b656e0000000000000000000000000000000000000000000000602082015250565b60006125af602983611cf3565b91506125ba82612553565b604082019050919050565b600060208201905081810360008301526125de816125a2565b9050919050565b7f496e76616c6964204d696e746572000000000000000000000000000000000000600082015250565b600061261b600e83611cf3565b9150612626826125e5565b602082019050919050565b6000602082019050818103600083015261264a8161260e565b9050919050565b600061265c82611dff565b915061266783611dff565b9250827fffffffffffffffffffffffffffffffffffffffffffffffffffffffffffffffff0382111561269c5761269b6124f0565b5b828201905092915050565b7f4552433732313a2062616c616e636520717565727920666f7220746865207a6560008201527f726f206164647265737300000000000000000000000000000000000000000000602082015250565b6000612703602a83611cf3565b915061270e826126a7565b604082019050919050565b60006020820190508181036000830152612732816126f6565b9050919050565b7f45524337323155524953746f726167653a2055524920717565727920666f722060008201527f6e6f6e6578697374656e7420746f6b656e000000000000000000000000000000602082015250565b6000612795603183611cf3565b91506127a082612739565b604082019050919050565b600060208201905081810360008301526127c481612788565b9050919050565b600081905092915050565b60006127e182611ce8565b6127eb81856127cb565b93506127fb818560208601611d04565b80840191505092915050565b600061281382856127d6565b915061281f82846127d6565b91508190509392505050565b7f4552433732313a206f70657261746f7220717565727920666f72206e6f6e657860008201527f697374656e7420746f6b656e0000000000000000000000000000000000000000602082015250565b6000612887602c83611cf3565b91506128928261282b565b604082019050919050565b600060208201905081810360008301526128b68161287a565b9050919050565b7f4552433732313a207472616e736665722066726f6d20696e636f72726563742060008201527f6f776e6572000000000000000000000000000000000000000000000000000000602082015250565b6000612919602583611cf3565b9150612924826128bd565b604082019050919050565b600060208201905081810360008301526129488161290c565b9050919050565b7f4552433732313a207472616e7366657220746f20746865207a65726f2061646460008201527f7265737300000000000000000000000000000000000000000000000000000000602082015250565b60006129ab602483611cf3565b91506129b68261294f565b604082019050919050565b600060208201905081810360008301526129da8161299e565b9050919050565b7f4552433732313a206d696e7420746f20746865207a65726f2061646472657373600082015250565b6000612a17602083611cf3565b9150612a22826129e1565b602082019050919050565b60006020820190508181036000830152612a4681612a0a565b9050919050565b7f4552433732313a20746f6b656e20616c7265616479206d696e74656400000000600082015250565b6000612a83601c83611cf3565b9150612a8e82612a4d565b602082019050919050565b60006020820190508181036000830152612ab281612a76565b9050919050565b7f4552433732313a20617070726f766520746f2063616c6c657200000000000000600082015250565b6000612aef601983611cf3565b9150612afa82612ab9565b602082019050919050565b60006020820190508181036000830152612b1e81612ae2565b9050919050565b7f4552433732313a207472616e7366657220746f206e6f6e20455243373231526560008201527f63656976657220696d706c656d656e7465720000000000000000000000000000602082015250565b6000612b81603283611cf3565b9150612b8c82612b25565b604082019050919050565b60006020820190508181036000830152612bb081612b74565b9050919050565b7f4552433732314d657461646174613a2055524920717565727920666f72206e6f60008201527f6e6578697374656e7420746f6b656e0000000000000000000000000000000000602082015250565b6000612c13602f83611cf3565b9150612c1e82612bb7565b604082019050919050565b60006020820190508181036000830152612c4281612c06565b9050919050565b600081519050919050565b600082825260208201905092915050565b6000612c7082612c49565b612c7a8185612c54565b9350612c8a818560208601611d04565b612c9381611d37565b840191505092915050565b6000608082019050612cb36000830187611dd5565b612cc06020830186611dd5565b612ccd6040830185611f4e565b8181036060830152612cdf8184612c65565b905095945050505050565b600081519050612cf981611c59565b92915050565b600060208284031215612d1557612d14611c23565b5b6000612d2384828501612cea565b91505092915050565b6000612d3782611dff565b91507fffffffffffffffffffffffffffffffffffffffffffffffffffffffffffffffff8203612d6957612d686124f0565b5b600182019050919050565b7f4e487b7100000000000000000000000000000000000000000000000000000000600052601260045260246000fd5b6000612dae82611dff565b9150612db983611dff565b925082612dc957612dc8612d74565b5b828204905092915050565b6000612ddf82611dff565b9150612dea83611dff565b925082612dfa57612df9612d74565b5b828206905092915050565b7f4e487b7100000000000000000000000000000000000000000000000000000000600052603260045260246000fdfea26469706673582212202f64a618cd1412ecb97cf0e855a66cb0bc7e3ccb892b76413ec1f36be140042164736f6c634300080d0033",
  "immutableReferences": {},
  "source": "// SPDX-License-Identifier: MIT\npragma solidity ^0.8.10;\n\n// https://github.com/aurora-is-near/aurora-examples/blob/main/truffle/erc721-example/contracts/CovidVaccineToken.sol\n\nimport \"@openzeppelin/contracts/token/ERC721/ERC721.sol\";\nimport \"@openzeppelin/contracts/token/ERC721/extensions/ERC721URIStorage.sol\";\nimport \"@openzeppelin/contracts/utils/Counters.sol\";\n\ncontract Token is ERC721URIStorage {\n    uint256 private _tokensCount = 0;\n    address public minter = address(0);\n\n    modifier onlyMinter(){\n        require(\n            minter == msg.sender,\n            'Invalid Minter'\n        );\n        _;\n    }\n\n    constructor() ERC721(\"Token\", \"TST\") {\n        minter = msg.sender;\n    }\n\n    function mint(address to) external onlyMinter {\n        uint256 tokenId = _tokensCount + 1;\n        _mint(to, tokenId);\n        _tokensCount = tokenId;\n    }\n\n    function burn(uint256 tokenId) external {\n        _burn(tokenId);\n        _tokensCount -= 1;\n    }\n\n    function safeTransferFrom(address from, address to, uint256 tokenId) public virtual override {\n        require(minter == msg.sender || to == minter, 'Invalid Transfer');\n        safeTransferFrom(from, to, tokenId, \"\");\n    }\n\n    function safeTransferFrom(address from, address to, uint256 tokenId, bytes memory _data) public virtual override {\n        require(minter == msg.sender || to == minter, 'Invalid Transfer');\n        require(_isApprovedOrOwner(_msgSender(), tokenId), \"ERC721: transfer caller is not owner nor approved\");\n        _safeTransfer(from, to, tokenId, _data);\n    }\n}\n",
  "sourcePath": "/Users/crystal/Revelry/liveview_web3/truffle/contracts/Token.sol",
  "compiler": {
    "name": "solc",
    "version": "0.8.13+commit.abaa5c0e.Emscripten.clang"
  },
  "schemaVersion": "3.4.6",
  "updatedAt": "2022-03-20T16:19:39.241Z",
  "devdoc": {
    "kind": "dev",
    "methods": {
      "approve(address,uint256)": {
        "details": "See {IERC721-approve}."
      },
      "balanceOf(address)": {
        "details": "See {IERC721-balanceOf}."
      },
      "getApproved(uint256)": {
        "details": "See {IERC721-getApproved}."
      },
      "isApprovedForAll(address,address)": {
        "details": "See {IERC721-isApprovedForAll}."
      },
      "name()": {
        "details": "See {IERC721Metadata-name}."
      },
      "ownerOf(uint256)": {
        "details": "See {IERC721-ownerOf}."
      },
      "safeTransferFrom(address,address,uint256)": {
        "details": "See {IERC721-safeTransferFrom}."
      },
      "safeTransferFrom(address,address,uint256,bytes)": {
        "details": "See {IERC721-safeTransferFrom}."
      },
      "setApprovalForAll(address,bool)": {
        "details": "See {IERC721-setApprovalForAll}."
      },
      "supportsInterface(bytes4)": {
        "details": "See {IERC165-supportsInterface}."
      },
      "symbol()": {
        "details": "See {IERC721Metadata-symbol}."
      },
      "tokenURI(uint256)": {
        "details": "See {IERC721Metadata-tokenURI}."
      },
      "transferFrom(address,address,uint256)": {
        "details": "See {IERC721-transferFrom}."
      }
    },
    "version": 1
  },
  "userdoc": {
    "kind": "user",
    "methods": {},
    "version": 1
  }
}