{
  "contractName": "VerifySignature",
  "abi": [
    {
      "inputs": [
        {
          "internalType": "address",
          "name": "_to",
          "type": "address"
        },
        {
          "internalType": "string",
          "name": "_message",
          "type": "string"
        }
      ],
      "name": "getMessageHash",
      "outputs": [
        {
          "internalType": "bytes32",
          "name": "",
          "type": "bytes32"
        }
      ],
      "stateMutability": "pure",
      "type": "function",
      "constant": true
    },
    {
      "inputs": [
        {
          "internalType": "bytes32",
          "name": "_messageHash",
          "type": "bytes32"
        }
      ],
      "name": "getEthSignedMessageHash",
      "outputs": [
        {
          "internalType": "bytes32",
          "name": "",
          "type": "bytes32"
        }
      ],
      "stateMutability": "pure",
      "type": "function",
      "constant": true
    },
    {
      "inputs": [
        {
          "internalType": "address",
          "name": "_signer",
          "type": "address"
        },
        {
          "internalType": "address",
          "name": "_to",
          "type": "address"
        },
        {
          "internalType": "string",
          "name": "_message",
          "type": "string"
        },
        {
          "internalType": "bytes",
          "name": "signature",
          "type": "bytes"
        }
      ],
      "name": "verify",
      "outputs": [
        {
          "internalType": "bool",
          "name": "",
          "type": "bool"
        }
      ],
      "stateMutability": "pure",
      "type": "function",
      "constant": true
    },
    {
      "inputs": [
        {
          "internalType": "bytes32",
          "name": "_ethSignedMessageHash",
          "type": "bytes32"
        },
        {
          "internalType": "bytes",
          "name": "_signature",
          "type": "bytes"
        }
      ],
      "name": "recoverSigner",
      "outputs": [
        {
          "internalType": "address",
          "name": "",
          "type": "address"
        }
      ],
      "stateMutability": "pure",
      "type": "function",
      "constant": true
    },
    {
      "inputs": [
        {
          "internalType": "bytes",
          "name": "sig",
          "type": "bytes"
        }
      ],
      "name": "splitSignature",
      "outputs": [
        {
          "internalType": "bytes32",
          "name": "r",
          "type": "bytes32"
        },
        {
          "internalType": "bytes32",
          "name": "s",
          "type": "bytes32"
        },
        {
          "internalType": "uint8",
          "name": "v",
          "type": "uint8"
        }
      ],
      "stateMutability": "pure",
      "type": "function",
      "constant": true
    }
  ],
  "bytecode": "0x608060405234801561001057600080fd5b50610a96806100206000396000f3fe608060405234801561001057600080fd5b50600436106100575760003560e01c80631ba4f8661461005c57806391be0c031461008c57806397aba7f9146100bc578063a7bb5803146100ec578063fa5408011461011e575b600080fd5b61007660048036038101906100719190610541565b61014e565b60405161008391906105fb565b60405180910390f35b6100a660048036038101906100a19190610616565b6101ae565b6040516100b3919061068b565b60405180910390f35b6100d660048036038101906100d191906106d2565b6101e1565b6040516100e3919061073d565b60405180910390f35b61010660048036038101906101019190610758565b610250565b604051610115939291906107bd565b60405180910390f35b610138600480360381019061013391906107f4565b6102b8565b604051610145919061068b565b60405180910390f35b60008061015b85856101ae565b90506000610168826102b8565b90508673ffffffffffffffffffffffffffffffffffffffff1661018b82866101e1565b73ffffffffffffffffffffffffffffffffffffffff161492505050949350505050565b600082826040516020016101c39291906108e3565b60405160208183030381529060405280519060200120905092915050565b6000806000806101f085610250565b92509250925060018682858560405160008152602001604052604051610219949392919061090b565b6020604051602081039080840390855afa15801561023b573d6000803e3d6000fd5b50505060206040510351935050505092915050565b60008060006041845114610299576040517f08c379a0000000000000000000000000000000000000000000000000000000008152600401610290906109ad565b60405180910390fd5b6020840151925060408401519150606084015160001a90509193909250565b6000816040516020016102cb9190610a3a565b604051602081830303815290604052805190602001209050919050565b6000604051905090565b600080fd5b600080fd5b600073ffffffffffffffffffffffffffffffffffffffff82169050919050565b6000610327826102fc565b9050919050565b6103378161031c565b811461034257600080fd5b50565b6000813590506103548161032e565b92915050565b600080fd5b600080fd5b6000601f19601f8301169050919050565b7f4e487b7100000000000000000000000000000000000000000000000000000000600052604160045260246000fd5b6103ad82610364565b810181811067ffffffffffffffff821117156103cc576103cb610375565b5b80604052505050565b60006103df6102e8565b90506103eb82826103a4565b919050565b600067ffffffffffffffff82111561040b5761040a610375565b5b61041482610364565b9050602081019050919050565b82818337600083830152505050565b600061044361043e846103f0565b6103d5565b90508281526020810184848401111561045f5761045e61035f565b5b61046a848285610421565b509392505050565b600082601f8301126104875761048661035a565b5b8135610497848260208601610430565b91505092915050565b600067ffffffffffffffff8211156104bb576104ba610375565b5b6104c482610364565b9050602081019050919050565b60006104e46104df846104a0565b6103d5565b905082815260208101848484011115610500576104ff61035f565b5b61050b848285610421565b509392505050565b600082601f8301126105285761052761035a565b5b81356105388482602086016104d1565b91505092915050565b6000806000806080858703121561055b5761055a6102f2565b5b600061056987828801610345565b945050602061057a87828801610345565b935050604085013567ffffffffffffffff81111561059b5761059a6102f7565b5b6105a787828801610472565b925050606085013567ffffffffffffffff8111156105c8576105c76102f7565b5b6105d487828801610513565b91505092959194509250565b60008115159050919050565b6105f5816105e0565b82525050565b600060208201905061061060008301846105ec565b92915050565b6000806040838503121561062d5761062c6102f2565b5b600061063b85828601610345565b925050602083013567ffffffffffffffff81111561065c5761065b6102f7565b5b61066885828601610472565b9150509250929050565b6000819050919050565b61068581610672565b82525050565b60006020820190506106a0600083018461067c565b92915050565b6106af81610672565b81146106ba57600080fd5b50565b6000813590506106cc816106a6565b92915050565b600080604083850312156106e9576106e86102f2565b5b60006106f7858286016106bd565b925050602083013567ffffffffffffffff811115610718576107176102f7565b5b61072485828601610513565b9150509250929050565b6107378161031c565b82525050565b6000602082019050610752600083018461072e565b92915050565b60006020828403121561076e5761076d6102f2565b5b600082013567ffffffffffffffff81111561078c5761078b6102f7565b5b61079884828501610513565b91505092915050565b600060ff82169050919050565b6107b7816107a1565b82525050565b60006060820190506107d2600083018661067c565b6107df602083018561067c565b6107ec60408301846107ae565b949350505050565b60006020828403121561080a576108096102f2565b5b6000610818848285016106bd565b91505092915050565b60008160601b9050919050565b600061083982610821565b9050919050565b600061084b8261082e565b9050919050565b61086361085e8261031c565b610840565b82525050565b600081519050919050565b600081905092915050565b60005b8381101561089d578082015181840152602081019050610882565b838111156108ac576000848401525b50505050565b60006108bd82610869565b6108c78185610874565b93506108d781856020860161087f565b80840191505092915050565b60006108ef8285610852565b6014820191506108ff82846108b2565b91508190509392505050565b6000608082019050610920600083018761067c565b61092d60208301866107ae565b61093a604083018561067c565b610947606083018461067c565b95945050505050565b600082825260208201905092915050565b7f696e76616c6964207369676e6174757265206c656e6774680000000000000000600082015250565b6000610997601883610950565b91506109a282610961565b602082019050919050565b600060208201905081810360008301526109c68161098a565b9050919050565b7f19457468657265756d205369676e6564204d6573736167653a0a333200000000600082015250565b6000610a03601c83610874565b9150610a0e826109cd565b601c82019050919050565b6000819050919050565b610a34610a2f82610672565b610a19565b82525050565b6000610a45826109f6565b9150610a518284610a23565b6020820191508190509291505056fea264697066735822122029b3db0bc3c59b50c9dd1142f962d93ff175f4e87190f199580aaba6912999da64736f6c634300080d0033",
  "immutableReferences": {},
  "source": "// SPDX-License-Identifier: MIT\npragma solidity ^0.8.10;\n\ncontract VerifySignature {\n\n    function getMessageHash(\n        address _to,\n        string memory _message\n    ) public pure returns (bytes32) {\n        return keccak256(abi.encodePacked(_to, _message));\n    }\n\n    function getEthSignedMessageHash(bytes32 _messageHash)\n        public\n        pure\n        returns (bytes32)\n    {\n        /*\n        Signature is produced by signing a keccak256 hash with the following format:\n        \"\\x19Ethereum Signed Message\\n\" + len(msg) + msg\n        */\n        return\n            keccak256(\n                abi.encodePacked(\"\\x19Ethereum Signed Message:\\n32\", _messageHash)\n            );\n    }\n\n    /* 4. Verify signature\n    requires\n    --------\n    signer = SIGNER_PUBLIC_ADDRESS\n    to = RECEIVER_PUBLIC_ADDRESS\n    message = EXACT_MESSAGE_USED_TO_PRODUCE_SIGNATURE\n    signature = SIGNATURE_RECEIVED_AT_FIRST_SIGNING\n\n    returns\n    ---------\n    boolean\n\n    */\n    function verify(\n        address _signer,\n        address _to,\n        string memory _message,\n        bytes memory signature\n    ) public pure returns (bool) {\n        bytes32 messageHash = getMessageHash(_to, _message);\n        bytes32 ethSignedMessageHash = getEthSignedMessageHash(messageHash);\n\n        return recoverSigner(ethSignedMessageHash, signature) == _signer;\n    }\n\n    function recoverSigner(bytes32 _ethSignedMessageHash, bytes memory _signature)\n        public\n        pure\n        returns (address)\n    {\n        (bytes32 r, bytes32 s, uint8 v) = splitSignature(_signature);\n\n        return ecrecover(_ethSignedMessageHash, v, r, s);\n    }\n\n    function splitSignature(bytes memory sig)\n        public\n        pure\n        returns (\n            bytes32 r,\n            bytes32 s,\n            uint8 v\n        )\n    {\n        require(sig.length == 65, \"invalid signature length\");\n\n        assembly {\n            /*\n            First 32 bytes stores the length of the signature\n\n            add(sig, 32) = pointer of sig + 32\n            effectively, skips first 32 bytes of signature\n\n            mload(p) loads next 32 bytes starting at the memory address p into memory\n            */\n\n            // first 32 bytes, after the length prefix\n            r := mload(add(sig, 32))\n            // second 32 bytes\n            s := mload(add(sig, 64))\n            // final byte (first byte of the next 32 bytes)\n            v := byte(0, mload(add(sig, 96)))\n        }\n\n        // implicitly return (r, s, v)\n    }\n}\n",
  "sourcePath": "/Users/crystal/Revelry/liveview_web3/truffle/contracts/VerifySignature.sol",
  "compiler": {
    "name": "solc",
    "version": "0.8.13+commit.abaa5c0e.Emscripten.clang"
  },
  "schemaVersion": "3.4.6",
  "updatedAt": "2022-03-22T20:44:05.653Z",
  "networkType": "ethereum",
  "devdoc": {
    "kind": "dev",
    "methods": {},
    "version": 1
  },
  "userdoc": {
    "kind": "user",
    "methods": {},
    "version": 1
  }
}